{"abi":[{"type":"constructor","inputs":[{"name":"_tokenA","type":"address","internalType":"address"},{"name":"_tokenB","type":"address","internalType":"address"}],"stateMutability":"nonpayable"},{"type":"function","name":"addLiquidity","inputs":[{"name":"amountA","type":"uint256","internalType":"uint256"},{"name":"amountB","type":"uint256","internalType":"uint256"}],"outputs":[{"name":"","type":"bool","internalType":"bool"}],"stateMutability":"nonpayable"},{"type":"function","name":"reserveA","inputs":[],"outputs":[{"name":"","type":"uint256","internalType":"uint256"}],"stateMutability":"view"},{"type":"function","name":"reserveB","inputs":[],"outputs":[{"name":"","type":"uint256","internalType":"uint256"}],"stateMutability":"view"},{"type":"function","name":"swapAforB","inputs":[{"name":"amountA","type":"uint256","internalType":"uint256"}],"outputs":[{"name":"","type":"uint256","internalType":"uint256"}],"stateMutability":"nonpayable"},{"type":"function","name":"swapBforA","inputs":[{"name":"amountB","type":"uint256","internalType":"uint256"}],"outputs":[{"name":"","type":"uint256","internalType":"uint256"}],"stateMutability":"nonpayable"},{"type":"function","name":"tokenA","inputs":[],"outputs":[{"name":"","type":"address","internalType":"contract IERC20"}],"stateMutability":"view"},{"type":"function","name":"tokenB","inputs":[],"outputs":[{"name":"","type":"address","internalType":"contract IERC20"}],"stateMutability":"view"},{"type":"error","name":"ReentrancyGuardReentrantCall","inputs":[]}],"bytecode":{"object":"0x608060405234801561000f575f5ffd5b50604051610fdf380380610fdf8339818101604052810190610031919061016b565b600161004f6100446100db60201b60201c565b61010460201b60201c565b5f0181905550815f5f6101000a81548173ffffffffffffffffffffffffffffffffffffffff021916908373ffffffffffffffffffffffffffffffffffffffff1602179055508060015f6101000a81548173ffffffffffffffffffffffffffffffffffffffff021916908373ffffffffffffffffffffffffffffffffffffffff16021790555050506101a9565b5f7f9b779b17422d0df92223018b32b4d1fa46e071723d6817e2486d003becc55f005f1b905090565b5f819050919050565b5f5ffd5b5f73ffffffffffffffffffffffffffffffffffffffff82169050919050565b5f61013a82610111565b9050919050565b61014a81610130565b8114610154575f5ffd5b50565b5f8151905061016581610141565b92915050565b5f5f604083850312156101815761018061010d565b5b5f61018e85828601610157565b925050602061019f85828601610157565b9150509250929050565b610e29806101b65f395ff3fe608060405234801561000f575f5ffd5b506004361061007b575f3560e01c80638014a7aa116100595780638014a7aa146100d95780639cd441da14610109578063dc5fa6c514610139578063e4f1f70a146101575761007b565b80630fc63d101461007f57806319e36f3b1461009d5780635f64b55b146100bb575b5f5ffd5b610087610187565b60405161009491906109fd565b60405180910390f35b6100a56101ab565b6040516100b29190610a2e565b60405180910390f35b6100c36101b1565b6040516100d091906109fd565b60405180910390f35b6100f360048036038101906100ee9190610a75565b6101d6565b6040516101009190610a2e565b60405180910390f35b610123600480360381019061011e9190610aa0565b610442565b6040516101309190610af8565b60405180910390f35b610141610646565b60405161014e9190610a2e565b60405180910390f35b610171600480360381019061016c9190610a75565b61064c565b60405161017e9190610a2e565b60405180910390f35b5f5f9054906101000a900473ffffffffffffffffffffffffffffffffffffffff1681565b60035481565b60015f9054906101000a900473ffffffffffffffffffffffffffffffffffffffff1681565b5f6101df6108b8565b5f826003546101ee9190610b3e565b600254846101fc9190610b71565b6102069190610bdf565b90505f811161024a576040517f08c379a000000000000000000000000000000000000000000000000000000000815260040161024190610c69565b60405180910390fd5b60015f9054906101000a900473ffffffffffffffffffffffffffffffffffffffff1673ffffffffffffffffffffffffffffffffffffffff166323b872dd3330866040518463ffffffff1660e01b81526004016102a893929190610ca7565b6020604051808303815f875af11580156102c4573d5f5f3e3d5ffd5b505050506040513d601f19601f820116820180604052508101906102e89190610d06565b610327576040517f08c379a000000000000000000000000000000000000000000000000000000000815260040161031e90610d7b565b60405180910390fd5b5f5f9054906101000a900473ffffffffffffffffffffffffffffffffffffffff1673ffffffffffffffffffffffffffffffffffffffff1663a9059cbb33836040518363ffffffff1660e01b8152600401610382929190610d99565b6020604051808303815f875af115801561039e573d5f5f3e3d5ffd5b505050506040513d601f19601f820116820180604052508101906103c29190610d06565b610401576040517f08c379a00000000000000000000000000000000000000000000000000000000081526004016103f890610d7b565b60405180910390fd5b8260035f8282546104129190610b3e565b925050819055508060025f82825461042a9190610dc0565b925050819055508091505061043d6108da565b919050565b5f61044b6108b8565b5f5f9054906101000a900473ffffffffffffffffffffffffffffffffffffffff1673ffffffffffffffffffffffffffffffffffffffff166323b872dd3330866040518463ffffffff1660e01b81526004016104a893929190610ca7565b6020604051808303815f875af11580156104c4573d5f5f3e3d5ffd5b505050506040513d601f19601f820116820180604052508101906104e89190610d06565b610527576040517f08c379a000000000000000000000000000000000000000000000000000000000815260040161051e90610d7b565b60405180910390fd5b60015f9054906101000a900473ffffffffffffffffffffffffffffffffffffffff1673ffffffffffffffffffffffffffffffffffffffff166323b872dd3330856040518463ffffffff1660e01b815260040161058593929190610ca7565b6020604051808303815f875af11580156105a1573d5f5f3e3d5ffd5b505050506040513d601f19601f820116820180604052508101906105c59190610d06565b610604576040517f08c379a00000000000000000000000000000000000000000000000000000000081526004016105fb90610d7b565b60405180910390fd5b8260025f8282546106159190610b3e565b925050819055508160035f82825461062d9190610b3e565b92505081905550600190506106406108da565b92915050565b60025481565b5f6106556108b8565b5f826002546106649190610b3e565b600354846106729190610b71565b61067c9190610bdf565b90505f81116106c0576040517f08c379a00000000000000000000000000000000000000000000000000000000081526004016106b790610c69565b60405180910390fd5b5f5f9054906101000a900473ffffffffffffffffffffffffffffffffffffffff1673ffffffffffffffffffffffffffffffffffffffff166323b872dd3330866040518463ffffffff1660e01b815260040161071d93929190610ca7565b6020604051808303815f875af1158015610739573d5f5f3e3d5ffd5b505050506040513d601f19601f8201168201806040525081019061075d9190610d06565b61079c576040517f08c379a000000000000000000000000000000000000000000000000000000000815260040161079390610d7b565b60405180910390fd5b60015f9054906101000a900473ffffffffffffffffffffffffffffffffffffffff1673ffffffffffffffffffffffffffffffffffffffff1663a9059cbb33836040518363ffffffff1660e01b81526004016107f8929190610d99565b6020604051808303815f875af1158015610814573d5f5f3e3d5ffd5b505050506040513d601f19601f820116820180604052508101906108389190610d06565b610877576040517f08c379a000000000000000000000000000000000000000000000000000000000815260040161086e90610d7b565b60405180910390fd5b8260025f8282546108889190610b3e565b925050819055508060035f8282546108a09190610dc0565b92505081905550809150506108b36108da565b919050565b6108c06108f4565b60026108d26108cd610935565b61095e565b5f0181905550565b60016108ec6108e7610935565b61095e565b5f0181905550565b6108fc610967565b15610933576040517f3ee5aeb500000000000000000000000000000000000000000000000000000000815260040160405180910390fd5b565b5f7f9b779b17422d0df92223018b32b4d1fa46e071723d6817e2486d003becc55f005f1b905090565b5f819050919050565b5f600261097a610975610935565b61095e565b5f015414905090565b5f73ffffffffffffffffffffffffffffffffffffffff82169050919050565b5f819050919050565b5f6109c56109c06109bb84610983565b6109a2565b610983565b9050919050565b5f6109d6826109ab565b9050919050565b5f6109e7826109cc565b9050919050565b6109f7816109dd565b82525050565b5f602082019050610a105f8301846109ee565b92915050565b5f819050919050565b610a2881610a16565b82525050565b5f602082019050610a415f830184610a1f565b92915050565b5f5ffd5b610a5481610a16565b8114610a5e575f5ffd5b50565b5f81359050610a6f81610a4b565b92915050565b5f60208284031215610a8a57610a89610a47565b5b5f610a9784828501610a61565b91505092915050565b5f5f60408385031215610ab657610ab5610a47565b5b5f610ac385828601610a61565b9250506020610ad485828601610a61565b9150509250929050565b5f8115159050919050565b610af281610ade565b82525050565b5f602082019050610b0b5f830184610ae9565b92915050565b7f4e487b71000000000000000000000000000000000000000000000000000000005f52601160045260245ffd5b5f610b4882610a16565b9150610b5383610a16565b9250828201905080821115610b6b57610b6a610b11565b5b92915050565b5f610b7b82610a16565b9150610b8683610a16565b9250828202610b9481610a16565b91508282048414831517610bab57610baa610b11565b5b5092915050565b7f4e487b71000000000000000000000000000000000000000000000000000000005f52601260045260245ffd5b5f610be982610a16565b9150610bf483610a16565b925082610c0457610c03610bb2565b5b828204905092915050565b5f82825260208201905092915050565b7f496e73756666696369656e74206f757470757420616d6f756e740000000000005f82015250565b5f610c53601a83610c0f565b9150610c5e82610c1f565b602082019050919050565b5f6020820190508181035f830152610c8081610c47565b9050919050565b5f610c9182610983565b9050919050565b610ca181610c87565b82525050565b5f606082019050610cba5f830186610c98565b610cc76020830185610c98565b610cd46040830184610a1f565b949350505050565b610ce581610ade565b8114610cef575f5ffd5b50565b5f81519050610d0081610cdc565b92915050565b5f60208284031215610d1b57610d1a610a47565b5b5f610d2884828501610cf2565b91505092915050565b7f5472616e73666572206661696c656400000000000000000000000000000000005f82015250565b5f610d65600f83610c0f565b9150610d7082610d31565b602082019050919050565b5f6020820190508181035f830152610d9281610d59565b9050919050565b5f604082019050610dac5f830185610c98565b610db96020830184610a1f565b9392505050565b5f610dca82610a16565b9150610dd583610a16565b9250828203905081811115610ded57610dec610b11565b5b9291505056fea2646970667358221220ab08ffece9304ce8b3b2588eedd5d0ef988036778d96fc43ed7f7d0a9d36b1a364736f6c63430008220033","linkReferences":{}},"methodIdentifiers":{"addLiquidity(uint256,uint256)":"9cd441da","reserveA()":"dc5fa6c5","reserveB()":"19e36f3b","swapAforB(uint256)":"e4f1f70a","swapBforA(uint256)":"8014a7aa","tokenA()":"0fc63d10","tokenB()":"5f64b55b"},"id":0}