{"abi":[{"type":"constructor","inputs":[{"name":"_stakingToken","type":"address","internalType":"address"}],"stateMutability":"nonpayable"},{"type":"function","name":"reward","inputs":[{"name":"_amount","type":"uint256","internalType":"uint256"}],"outputs":[{"name":"","type":"uint256","internalType":"uint256"}],"stateMutability":"pure"},{"type":"function","name":"stake","inputs":[{"name":"_amount","type":"uint256","internalType":"uint256"}],"outputs":[{"name":"","type":"bool","internalType":"bool"}],"stateMutability":"nonpayable"},{"type":"function","name":"stakingBalance","inputs":[{"name":"","type":"address","internalType":"address"}],"outputs":[{"name":"","type":"uint256","internalType":"uint256"}],"stateMutability":"view"},{"type":"function","name":"stakingTime","inputs":[{"name":"","type":"address","internalType":"address"}],"outputs":[{"name":"","type":"uint256","internalType":"uint256"}],"stateMutability":"view"},{"type":"function","name":"stakingToken","inputs":[],"outputs":[{"name":"","type":"address","internalType":"contract IERC20"}],"stateMutability":"view"},{"type":"function","name":"unstake","inputs":[{"name":"_amount","type":"uint256","internalType":"uint256"}],"outputs":[{"name":"","type":"bool","internalType":"bool"}],"stateMutability":"nonpayable"},{"type":"error","name":"ReentrancyGuardReentrantCall","inputs":[]}],"bytecode":{"object":"0x608060405234801561000f575f5ffd5b50604051610be8380380610be88339818101604052810190610031919061012a565b600161004f61004461009a60201b60201c565b6100c360201b60201c565b5f0181905550805f5f6101000a81548173ffffffffffffffffffffffffffffffffffffffff021916908373ffffffffffffffffffffffffffffffffffffffff16021790555050610155565b5f7f9b779b17422d0df92223018b32b4d1fa46e071723d6817e2486d003becc55f005f1b905090565b5f819050919050565b5f5ffd5b5f73ffffffffffffffffffffffffffffffffffffffff82169050919050565b5f6100f9826100d0565b9050919050565b610109816100ef565b8114610113575f5ffd5b50565b5f8151905061012481610100565b92915050565b5f6020828403121561013f5761013e6100cc565b5b5f61014c84828501610116565b91505092915050565b610a86806101625f395ff3fe608060405234801561000f575f5ffd5b5060043610610060575f3560e01c80632e17de781461006457806345bc78ab14610094578063583d42fd146100c457806372f702f3146100f4578063a694fc3a14610112578063a9fb763c14610142575b5f5ffd5b61007e60048036038101906100799190610641565b610172565b60405161008b9190610686565b60405180910390f35b6100ae60048036038101906100a991906106f9565b610351565b6040516100bb9190610733565b60405180910390f35b6100de60048036038101906100d991906106f9565b610366565b6040516100eb9190610733565b60405180910390f35b6100fc61037b565b60405161010991906107a7565b60405180910390f35b61012c60048036038101906101279190610641565b61039f565b6040516101399190610686565b60405180910390f35b61015c60048036038101906101579190610641565b61052a565b6040516101699190610733565b60405180910390f35b5f61017b61053f565b5f6101858361052a565b90508260015f3373ffffffffffffffffffffffffffffffffffffffff1673ffffffffffffffffffffffffffffffffffffffff1681526020019081526020015f20541015610207576040517f08c379a00000000000000000000000000000000000000000000000000000000081526004016101fe9061081a565b60405180910390fd5b8260015f3373ffffffffffffffffffffffffffffffffffffffff1673ffffffffffffffffffffffffffffffffffffffff1681526020019081526020015f205f8282546102539190610865565b925050819055505f5f9054906101000a900473ffffffffffffffffffffffffffffffffffffffff1673ffffffffffffffffffffffffffffffffffffffff1663a9059cbb3383866102a39190610898565b6040518363ffffffff1660e01b81526004016102c09291906108da565b6020604051808303815f875af11580156102dc573d5f5f3e3d5ffd5b505050506040513d601f19601f82011682018060405250810190610300919061092b565b61033f576040517f08c379a0000000000000000000000000000000000000000000000000000000008152600401610336906109a0565b60405180910390fd5b600191505061034c610561565b919050565b6001602052805f5260405f205f915090505481565b6002602052805f5260405f205f915090505481565b5f5f9054906101000a900473ffffffffffffffffffffffffffffffffffffffff1681565b5f6103a861053f565b5f5f9054906101000a900473ffffffffffffffffffffffffffffffffffffffff1673ffffffffffffffffffffffffffffffffffffffff166323b872dd3330856040518463ffffffff1660e01b8152600401610405939291906109be565b6020604051808303815f875af1158015610421573d5f5f3e3d5ffd5b505050506040513d601f19601f82011682018060405250810190610445919061092b565b610484576040517f08c379a000000000000000000000000000000000000000000000000000000000815260040161047b906109a0565b60405180910390fd5b8160015f3373ffffffffffffffffffffffffffffffffffffffff1673ffffffffffffffffffffffffffffffffffffffff1681526020019081526020015f205f8282546104d09190610898565b925050819055504260025f3373ffffffffffffffffffffffffffffffffffffffff1673ffffffffffffffffffffffffffffffffffffffff1681526020019081526020015f208190555060019050610525610561565b919050565b5f600a826105389190610a20565b9050919050565b61054761057b565b60026105596105546105bc565b6105e5565b5f0181905550565b600161057361056e6105bc565b6105e5565b5f0181905550565b6105836105ee565b156105ba576040517f3ee5aeb500000000000000000000000000000000000000000000000000000000815260040160405180910390fd5b565b5f7f9b779b17422d0df92223018b32b4d1fa46e071723d6817e2486d003becc55f005f1b905090565b5f819050919050565b5f60026106016105fc6105bc565b6105e5565b5f015414905090565b5f5ffd5b5f819050919050565b6106208161060e565b811461062a575f5ffd5b50565b5f8135905061063b81610617565b92915050565b5f602082840312156106565761065561060a565b5b5f6106638482850161062d565b91505092915050565b5f8115159050919050565b6106808161066c565b82525050565b5f6020820190506106995f830184610677565b92915050565b5f73ffffffffffffffffffffffffffffffffffffffff82169050919050565b5f6106c88261069f565b9050919050565b6106d8816106be565b81146106e2575f5ffd5b50565b5f813590506106f3816106cf565b92915050565b5f6020828403121561070e5761070d61060a565b5b5f61071b848285016106e5565b91505092915050565b61072d8161060e565b82525050565b5f6020820190506107465f830184610724565b92915050565b5f819050919050565b5f61076f61076a6107658461069f565b61074c565b61069f565b9050919050565b5f61078082610755565b9050919050565b5f61079182610776565b9050919050565b6107a181610787565b82525050565b5f6020820190506107ba5f830184610798565b92915050565b5f82825260208201905092915050565b7f496e73756666696369656e74207374616b65642062616c616e636500000000005f82015250565b5f610804601b836107c0565b915061080f826107d0565b602082019050919050565b5f6020820190508181035f830152610831816107f8565b9050919050565b7f4e487b71000000000000000000000000000000000000000000000000000000005f52601160045260245ffd5b5f61086f8261060e565b915061087a8361060e565b925082820390508181111561089257610891610838565b5b92915050565b5f6108a28261060e565b91506108ad8361060e565b92508282019050808211156108c5576108c4610838565b5b92915050565b6108d4816106be565b82525050565b5f6040820190506108ed5f8301856108cb565b6108fa6020830184610724565b9392505050565b61090a8161066c565b8114610914575f5ffd5b50565b5f8151905061092581610901565b92915050565b5f602082840312156109405761093f61060a565b5b5f61094d84828501610917565b91505092915050565b7f5472616e73666572206661696c656400000000000000000000000000000000005f82015250565b5f61098a600f836107c0565b915061099582610956565b602082019050919050565b5f6020820190508181035f8301526109b78161097e565b9050919050565b5f6060820190506109d15f8301866108cb565b6109de60208301856108cb565b6109eb6040830184610724565b949350505050565b7f4e487b71000000000000000000000000000000000000000000000000000000005f52601260045260245ffd5b5f610a2a8261060e565b9150610a358361060e565b925082610a4557610a446109f3565b5b82820490509291505056fea2646970667358221220e7ddd791a67c716bb021ce8f2f2120da02dfbddf5fd8dfa5f940cf5b22ac01b364736f6c63430008220033","linkReferences":{}},"methodIdentifiers":{"reward(uint256)":"a9fb763c","stake(uint256)":"a694fc3a","stakingBalance(address)":"45bc78ab","stakingTime(address)":"583d42fd","stakingToken()":"72f702f3","unstake(uint256)":"2e17de78"},"id":1}